:060000000A128A1110280B
:10000800FE000308F2000408F3000A08F4007F0861
:10001800F5000A128A11F3290A128A112F2D0030CD
:100028008A000408840A82070034543465346D3425
:10003800703420343A3420342034203420342034AE
:100048002034203420342034203420342034003428
:10005800573445344C3443344F344D3445342034CC
:1000680020342034203420342034203420342034E8
:1000780000340A128A1182240A128A118312031385
:10008800081007108710071187110A128A114221D8
:100098000A128A110A128A11AE250A128A1103104D
:1000A80000300318013083120313DE000F30E7001D
:1000B8006708DF008030E8006808E00014300A12A2
:1000C8008A11BE240A128A1183120313DB01031456
:1000D800DB0D01300A128A1185250A128A11FB10DC
:1000E800031000300318013083120313D100FB10F2
:1000F8000310003003180130CD0000300A128A11B5
:10010800E0220A128A118828FB1C8B288C28882850
:10011800831203131F11FB103C08B0003D08B10007
:10012800B201B3010030D6000030D5000030D40051
:100138000A30D3003308DA003208D9003108D80071
:100148003008D7000A128A1182230A128A118312F0
:1001580003135608B3005508B2005408B1005308F9
:10016800B00001300310B30CB20CB10CB00CFF3E60
:10017800031DB628F630E700FF30E800FF30E9003D
:10018800FF30EA003008E70731080318310FCD289F
:10019800CE28E80732080318320FD328D428E907F5
:1001A80033080318330AEA076A08B3006908B2007B
:1001B8006808B1006708B000031000300318013068
:1001C800DE000F30E7006708DF008030E8006808CD
:1001D800E00001300A128A11BE240A128A11831221
:1001E80003133108DF01DF073008DE01DE070830BE
:1001F800E7006708E0000B30E8006808E1000A3013
:10020800E9006908E2008030EA006A08E3000A129F
:100218008A117F220A128A110030831203133302D3
:10022800031D202900303202031D2029013031022C
:10023800031D20292D303002031C232924292629B7
:10024800081427290810881B2A292B293E2907105A
:100258008714071187153230D3000030D4000A12F2
:100268008A11D0250A128A118312031307108710E6
:100278000711871181280A128A1110280330831266
:100288000313DB005B08EB000A128A1146240A12EA
:100298008A11103083120313D3000030D4000A12DD
:1002A8008A11D0250A128A11033083120313DB0046
:1002B8005B08EB000A128A1146240A128A111030D0
:1002C80083120313D3000030D4000A128A11D025F8
:1002D8000A128A11033083120313DB005B08EB0058
:1002E8000A128A1146240A128A1110308312031343
:1002F800D3000030D4000A128A11D0250A128A11BC
:10030800023083120313DB005B08EB000A128A1128
:1003180046240A128A11103083120313D3000030C6
:10032800D4000A128A11D0250A128A1128308312A1
:100338000313DB005B08EB000A128A1146240A1239
:100348008A11103083120313D3000030D4000A122C
:100358008A11D0250A128A11083083120313DB0090
:100368005B08EB000A128A1146240A128A1110301F
:1003780083120313D3000030D4000A128A11D02547
:100388000A128A110C3083120313DB005B08EB009E
:100398000A128A1146240A128A110430831203139E
:1003A800D3000030D4000A128A11D0250A128A110B
:1003B800063083120313DB005B08EB000A128A1174
:1003C80046240A128A11043083120313D300003022
:1003D800D4000A128A11D0250A128A110800831241
:1003E80003130C1CF829F929312A0C10F5308F0059
:1003F80033308E000130C4070318C50A0030C50722
:100408007B1C072A082A0E2A7608031D0C2A0E2AA6
:100418000130F6020130C6070318C70A0030C707C3
:1004280003304702E83003194602031C1C2A1D2A20
:10043800252A0030C6000030C7000130F0007008DF
:10044800CD077808031D292A2C2A0130F802312A01
:10045800881B2F2A302A312A7B150C1F342A352A6B
:10046800512A0C13FB141E08F000F1010830FE009D
:100478000310F00DF10DFE0B3C2A831603131E0822
:10048800700783120313BC00003003180130710792
:10049800BD00FF30BC050330BD058C1E542A552A0B
:1004A800742A1A08F0007708903E840070088317B1
:1004B80080007708903E840000082A3A031D652AC8
:1004C800662A672AFB15FB1D6A2A6B2A742AC8301C
:1004D800F0007008F6007B140130F0007008F70790
:1004E8007508FF0074088A00730884007208830086
:1004F800FE0E7E0E0900831203136108013EE4001C
:100508006408E600D32A6608FF3EE400FF300318BB
:100518000030E500620864066504031D942A952AE4
:100528009F2A2E30E4006608FF3E203E84006408BF
:1005380083138000D12A0A30D3000030D4005F082A
:10054800D601D6075E08D501D5070A128A11CA2333
:100558000A128A11831203135308303EE400660816
:10056800FF3E203E84006408831380000A30D300D5
:100578000030D4005F08D601D6075E08D501D5073C
:100588000A128A1137230A128A1183120313540894
:10059800DF01DF075308DE01DE070130E6026608E7
:1005A8006006031DD82AD92A872A63080A128A11E5
:1005B80009240A128A11080083120313D700FB10BA
:1005C800D708031DE82AE92AEC2A81309F002A2B44
:1005D8005708013A031DF12AF22AF52A89309F00AB
:1005E8002A2B5708023A031DFA2AFB2AFE2A9130C1
:1005F8009F002A2B5708033A031D032B042B072BB4
:1006080099309F002A2B5708043A031D0C2B0D2BF9
:10061800102BA1309F002A2B5708053A031D152BD4
:10062800162B192BA9309F002A2B5708063A031DB1
:100638001E2B1F2B222BB1309F002A2B5708073A5D
:10064800031D272B282B2A2BB9309F000530D300F8
:100658000030D4000A128A11D0250A128A11831296
:1006680003131F150800003083120313D90000304C
:10067800DA00540853040319422B432B7B2BD8016F
:100688000314D80D522B01300310D30DD40DFF3EA7
:10069800031D482B0130D7005708D807D41F552B06
:1006A800562B472B01300310D90DDA0DFF3E031DE1
:1006B800572B54085602031D632B53085502031C7D
:1006C800662B672B6E2B5308D5025408031CD603E0
:1006D800D602591401300310D40CD30CFF3E031D6D
:1006E8006F2B0130D802031D7A2B7B2B562B5A080F
:1006F800D401D4075908D301D30708000030831266
:100708000313DF000030DE000030DD000030DC00C5
:10071800531C8F2B902BA72B5708DC075808031165
:100728000318013E0319992BDD0759080311031813
:10073800013E0319A02BDE075A0803110318013ED6
:100748000319A72BDF070130DB000310D70DD80DE5
:10075800D90DDA0DDB0BA92B01300310D60CD50C03
:10076800D40CD30CFF3E031DB12B5608550454047A
:100778005304031DC02BC12B8C2B5F08D6005E08C9
:10078800D5005D08D4005C08D30008008312031369
:10079800540853040319D12BD22B022CD80103146B
:1007A800D80DE12B01300310D30DD40DFF3E031DEE
:1007B800D72B0130D7005708D807D41FE42BE52BD7
:1007C800D62B54085602031DEB2B53085502031C65
:1007D800EE2BEF2BF52B5308D5025408031CD60338
:1007E800D60201300310D40CD30CFF3E031DF62BA8
:1007F8000130D802031D012C022CE52B5608D40128
:10080800D4075508D301D307080083120313DC006B
:100818005C08DB005B08EB000A128A1146240A1206
:100828008A11031000300318013083120313DD000E
:1008380010305D02031C212C222C232C3C2C5D083B
:10084800203E840083130008DB005B08EB000A12DB
:100858008A115B250A128A11013083120313DB0007
:100868005B08DD0710305D02031C3B2C3C2C232C5D
:100878000130D3000030D4000A128A11D0250A12A0
:100888008A110800831203136B08D9005908DA008B
:10089800D7010314D70D5A08F0390A128A11F8241F
:1008A8000A128A110A3083120313D3000030D400CD
:1008B8000A128A11D0250A128A1183120313D7014A
:1008C8000314D70D5A080F39D90003300310D90D76
:1008D800FF3E031D6A2C0310590D0A128A11F824D1
:1008E8000A128A110A3083120313D3000030D4008D
:1008F8000A128A11D0250A128A1108008430831638
:1009080003139F0081018B010F3085008601803021
:10091800870080308800890101308312031390001A
:10092800831603138113831203130C13F5308F00FE
:1009380033308E000B17831603130C1447309900BD
:10094800831203131816831603131815181283122B
:1009580003139817831603130C128C16181383129B
:1009680003131813831603139816831203138C01A9
:100978008B17080083120313E2005E08E100610888
:10098800E300EB2C620884000A128A1113200A1271
:100998008A11E1006308203E840061088313800007
:1009A8000130E1006108E2076308203E8400800806
:1009B800031DDF2CE02CE72C2030E1006308203EEB
:1009C8008400610880000130E1006108E3076308E2
:1009D8005F020318F02CF12CC62C60080A128A1149
:1009E80009240A128A11080083120313D800D81F99
:1009F800FE2CFF2C012D8617022D8613581F052D5E
:100A0800062D082D0617092D0613D81E0C2D0D2DA1
:100A18000F2D8616102D8612581E132D142D162DE7
:100A28000616172D061206115708031D1C2D1E2D1C
:100A380086101F2D86140000061500000611000000
:100A480086100230D3000030D4000A128A11D02553
:100A58000A128A110800FB01F601F701F801F901F1
:100A6800FA0183132030840053300A128A11E625D4
:100A78000A128A11A0308400B0300A128A11E625C1
:100A88000A128A11831790308400DB300A128A1107
:100A9800E6250A128A11103084005B300A128A1186
:100AA800E6250A128A1183010A128A113D28831247
:100AB80003136B08D9005908DA0003100030031833
:100AC8000130D7005A08F0390A128A11F8240A129C
:100AD8008A11031000300318013083120313D70062
:100AE8005A080F39D90003300310D90DFF3E031DF2
:100AF800782D0310590D0A128A11F8240A128A1146
:100B0800080083120313DD00A32D5B087F3EDC0081
:100B18005C08EB000A128A1146240A128A11AD2DCC
:100B2800831203135B08BF3EDC005C08EB000A126B
:100B38008A1146240A128A11AD2DAD2DAD2D8312CE
:100B480003135D08013A0319892D033A0319942DFB
:100B5800A12D0800FB10003083120313C4000030DD
:100B6800C5000310003003180130CD000030C60066
:100B78000030C7000310003003180130D100031003
:100B8800003003180130F7007B1003100030031801
:100B98000130F600FB1108008312031344085307C1
:100BA800D50045080318450A5407D600DB2D45082B
:100BB8005606031DE12D44085506031DE42DE52DB9
:100BC800DB2D080064008001840A04060319003440
:040BD8000406E72DFB
:00000001FF
